{
  "_format": "hh-sol-artifact-1",
  "contractName": "chai",
  "sourceName": "contracts/message.sol",
  "abi": [
    {
      "inputs": [],
      "name": "callData",
      "outputs": [
        {
          "components": [
            {
              "internalType": "string",
              "name": "name",
              "type": "string"
            },
            {
              "internalType": "string",
              "name": "messege",
              "type": "string"
            },
            {
              "internalType": "uint256",
              "name": "ammount",
              "type": "uint256"
            },
            {
              "internalType": "uint256",
              "name": "timestamp",
              "type": "uint256"
            },
            {
              "internalType": "address",
              "name": "receiver",
              "type": "address"
            }
          ],
          "internalType": "struct chai.fields[]",
          "name": "re",
          "type": "tuple[]"
        },
        {
          "components": [
            {
              "internalType": "string",
              "name": "name",
              "type": "string"
            },
            {
              "internalType": "string",
              "name": "messege",
              "type": "string"
            },
            {
              "internalType": "uint256",
              "name": "ammount",
              "type": "uint256"
            },
            {
              "internalType": "uint256",
              "name": "timestamp",
              "type": "uint256"
            },
            {
              "internalType": "address",
              "name": "receiver",
              "type": "address"
            }
          ],
          "internalType": "struct chai.fields[]",
          "name": "se",
          "type": "tuple[]"
        }
      ],
      "stateMutability": "view",
      "type": "function"
    },
    {
      "inputs": [
        {
          "internalType": "string",
          "name": "_name",
          "type": "string"
        }
      ],
      "name": "login",
      "outputs": [],
      "stateMutability": "nonpayable",
      "type": "function"
    },
    {
      "inputs": [
        {
          "internalType": "string",
          "name": "_name",
          "type": "string"
        },
        {
          "internalType": "string",
          "name": "_mes",
          "type": "string"
        },
        {
          "internalType": "address payable",
          "name": "_receiver",
          "type": "address"
        }
      ],
      "name": "send",
      "outputs": [],
      "stateMutability": "payable",
      "type": "function"
    }
  ],
  "bytecode": "0x608060405234801561001057600080fd5b506112be806100206000396000f3fe6080604052600436106100345760003560e01c80633a7d280c146100395780634e417a981461006257806394c66d881461008e575b600080fd5b34801561004557600080fd5b50610060600480360381019061005b9190610aec565b6100aa565b005b34801561006e57600080fd5b506100776100f9565b604051610085929190610d4d565b60405180910390f35b6100a860048036038101906100a39190610dc2565b610550565b005b806000803373ffffffffffffffffffffffffffffffffffffffff1673ffffffffffffffffffffffffffffffffffffffff16815260200190815260200160002090816100f59190611059565b5050565b606080600160003373ffffffffffffffffffffffffffffffffffffffff1673ffffffffffffffffffffffffffffffffffffffff168152602001908152602001600020600260003373ffffffffffffffffffffffffffffffffffffffff1673ffffffffffffffffffffffffffffffffffffffff16815260200190815260200160002081805480602002602001604051908101604052809291908181526020016000905b8282101561035b57838290600052602060002090600502016040518060a00160405290816000820180546101ce90610e7c565b80601f01602080910402602001604051908101604052809291908181526020018280546101fa90610e7c565b80156102475780601f1061021c57610100808354040283529160200191610247565b820191906000526020600020905b81548152906001019060200180831161022a57829003601f168201915b5050505050815260200160018201805461026090610e7c565b80601f016020809104026020016040519081016040528092919081815260200182805461028c90610e7c565b80156102d95780601f106102ae576101008083540402835291602001916102d9565b820191906000526020600020905b8154815290600101906020018083116102bc57829003601f168201915b5050505050815260200160028201548152602001600382015481526020016004820160009054906101000a900473ffffffffffffffffffffffffffffffffffffffff1673ffffffffffffffffffffffffffffffffffffffff1673ffffffffffffffffffffffffffffffffffffffff16815250508152602001906001019061019b565b50505050915080805480602002602001604051908101604052809291908181526020016000905b8282101561054257838290600052602060002090600502016040518060a00160405290816000820180546103b590610e7c565b80601f01602080910402602001604051908101604052809291908181526020018280546103e190610e7c565b801561042e5780601f106104035761010080835404028352916020019161042e565b820191906000526020600020905b81548152906001019060200180831161041157829003601f168201915b5050505050815260200160018201805461044790610e7c565b80601f016020809104026020016040519081016040528092919081815260200182805461047390610e7c565b80156104c05780601f10610495576101008083540402835291602001916104c0565b820191906000526020600020905b8154815290600101906020018083116104a357829003601f168201915b5050505050815260200160028201548152602001600382015481526020016004820160009054906101000a900473ffffffffffffffffffffffffffffffffffffffff1673ffffffffffffffffffffffffffffffffffffffff1673ffffffffffffffffffffffffffffffffffffffff168152505081526020019060010190610382565b505050509050915091509091565b60405160200161055f9061115c565b604051602081830303815290604052805190602001206000803373ffffffffffffffffffffffffffffffffffffffff1673ffffffffffffffffffffffffffffffffffffffff1681526020019081526020016000206040516020016105c391906111f4565b6040516020818303038152906040528051906020012003610619576040517f08c379a000000000000000000000000000000000000000000000000000000000815260040161061090611268565b60405180910390fd5b8073ffffffffffffffffffffffffffffffffffffffff166108fc349081150290604051600060405180830381858888f1935050505015801561065f573d6000803e3d6000fd5b5060006040518060a001604052806000803373ffffffffffffffffffffffffffffffffffffffff1673ffffffffffffffffffffffffffffffffffffffff16815260200190815260200160002080546106b690610e7c565b80601f01602080910402602001604051908101604052809291908181526020018280546106e290610e7c565b801561072f5780601f106107045761010080835404028352916020019161072f565b820191906000526020600020905b81548152906001019060200180831161071257829003601f168201915b505050505081526020018481526020013481526020014281526020013373ffffffffffffffffffffffffffffffffffffffff168152509050600160008373ffffffffffffffffffffffffffffffffffffffff1673ffffffffffffffffffffffffffffffffffffffff16815260200190815260200160002081908060018154018082558091505060019003906000526020600020906005020160009091909190915060008201518160000190816107e59190611059565b5060208201518160010190816107fb9190611059565b50604082015181600201556060820151816003015560808201518160040160006101000a81548173ffffffffffffffffffffffffffffffffffffffff021916908373ffffffffffffffffffffffffffffffffffffffff160217905550505083816000018190525081816080019073ffffffffffffffffffffffffffffffffffffffff16908173ffffffffffffffffffffffffffffffffffffffff1681525050600260003373ffffffffffffffffffffffffffffffffffffffff1673ffffffffffffffffffffffffffffffffffffffff16815260200190815260200160002081908060018154018082558091505060019003906000526020600020906005020160009091909190915060008201518160000190816109189190611059565b50602082015181600101908161092e9190611059565b50604082015181600201556060820151816003015560808201518160040160006101000a81548173ffffffffffffffffffffffffffffffffffffffff021916908373ffffffffffffffffffffffffffffffffffffffff160217905550505050505050565b6000604051905090565b600080fd5b600080fd5b600080fd5b600080fd5b6000601f19601f8301169050919050565b7f4e487b7100000000000000000000000000000000000000000000000000000000600052604160045260246000fd5b6109f9826109b0565b810181811067ffffffffffffffff82111715610a1857610a176109c1565b5b80604052505050565b6000610a2b610992565b9050610a3782826109f0565b919050565b600067ffffffffffffffff821115610a5757610a566109c1565b5b610a60826109b0565b9050602081019050919050565b82818337600083830152505050565b6000610a8f610a8a84610a3c565b610a21565b905082815260208101848484011115610aab57610aaa6109ab565b5b610ab6848285610a6d565b509392505050565b600082601f830112610ad357610ad26109a6565b5b8135610ae3848260208601610a7c565b91505092915050565b600060208284031215610b0257610b0161099c565b5b600082013567ffffffffffffffff811115610b2057610b1f6109a1565b5b610b2c84828501610abe565b91505092915050565b600081519050919050565b600082825260208201905092915050565b6000819050602082019050919050565b600081519050919050565b600082825260208201905092915050565b60005b83811015610b9b578082015181840152602081019050610b80565b60008484015250505050565b6000610bb282610b61565b610bbc8185610b6c565b9350610bcc818560208601610b7d565b610bd5816109b0565b840191505092915050565b6000819050919050565b610bf381610be0565b82525050565b600073ffffffffffffffffffffffffffffffffffffffff82169050919050565b6000610c2482610bf9565b9050919050565b610c3481610c19565b82525050565b600060a0830160008301518482036000860152610c578282610ba7565b91505060208301518482036020860152610c718282610ba7565b9150506040830151610c866040860182610bea565b506060830151610c996060860182610bea565b506080830151610cac6080860182610c2b565b508091505092915050565b6000610cc38383610c3a565b905092915050565b6000602082019050919050565b6000610ce382610b35565b610ced8185610b40565b935083602082028501610cff85610b51565b8060005b85811015610d3b5784840389528151610d1c8582610cb7565b9450610d2783610ccb565b925060208a01995050600181019050610d03565b50829750879550505050505092915050565b60006040820190508181036000830152610d678185610cd8565b90508181036020830152610d7b8184610cd8565b90509392505050565b6000610d8f82610bf9565b9050919050565b610d9f81610d84565b8114610daa57600080fd5b50565b600081359050610dbc81610d96565b92915050565b600080600060608486031215610ddb57610dda61099c565b5b600084013567ffffffffffffffff811115610df957610df86109a1565b5b610e0586828701610abe565b935050602084013567ffffffffffffffff811115610e2657610e256109a1565b5b610e3286828701610abe565b9250506040610e4386828701610dad565b9150509250925092565b7f4e487b7100000000000000000000000000000000000000000000000000000000600052602260045260246000fd5b60006002820490506001821680610e9457607f821691505b602082108103610ea757610ea6610e4d565b5b50919050565b60008190508160005260206000209050919050565b60006020601f8301049050919050565b600082821b905092915050565b600060088302610f0f7fffffffffffffffffffffffffffffffffffffffffffffffffffffffffffffffff82610ed2565b610f198683610ed2565b95508019841693508086168417925050509392505050565b6000819050919050565b6000610f56610f51610f4c84610be0565b610f31565b610be0565b9050919050565b6000819050919050565b610f7083610f3b565b610f84610f7c82610f5d565b848454610edf565b825550505050565b600090565b610f99610f8c565b610fa4818484610f67565b505050565b5b81811015610fc857610fbd600082610f91565b600181019050610faa565b5050565b601f82111561100d57610fde81610ead565b610fe784610ec2565b81016020851015610ff6578190505b61100a61100285610ec2565b830182610fa9565b50505b505050565b600082821c905092915050565b600061103060001984600802611012565b1980831691505092915050565b6000611049838361101f565b9150826002028217905092915050565b61106282610b61565b67ffffffffffffffff81111561107b5761107a6109c1565b5b6110858254610e7c565b611090828285610fcc565b600060209050601f8311600181146110c357600084156110b1578287015190505b6110bb858261103d565b865550611123565b601f1984166110d186610ead565b60005b828110156110f9578489015182556001820191506020850194506020810190506110d4565b868310156111165784890151611112601f89168261101f565b8355505b6001600288020188555050505b505050505050565b600081905092915050565b50565b600061114660008361112b565b915061115182611136565b600082019050919050565b600061116782611139565b9150819050919050565b6000815461117e81610e7c565b611188818661112b565b945060018216600081146111a357600181146111b8576111eb565b60ff19831686528115158202860193506111eb565b6111c185610ead565b60005b838110156111e3578154818901526001820191506020810190506111c4565b838801955050505b50505092915050565b60006112008284611171565b915081905092915050565b600082825260208201905092915050565b7f6669727374206c6f67696e000000000000000000000000000000000000000000600082015250565b6000611252600b8361120b565b915061125d8261121c565b602082019050919050565b6000602082019050818103600083015261128181611245565b905091905056fea2646970667358221220a30af41cdaf39c0c466351f25b46e41304127910b8b844cdfb8db9b330c8d43764736f6c63430008120033",
  "linkReferences": {},
  "deployedLinkReferences": {}
}