{
  "_format": "hh-sol-artifact-1",
  "contractName": "chai",
  "sourceName": "contracts/message.sol",
  "abi": [
    {
      "inputs": [],
      "name": "callData",
      "outputs": [
        {
          "components": [
            {
              "internalType": "string",
              "name": "name",
              "type": "string"
            },
            {
              "internalType": "string",
              "name": "messege",
              "type": "string"
            },
            {
              "internalType": "uint256",
              "name": "ammount",
              "type": "uint256"
            },
            {
              "internalType": "uint256",
              "name": "timestamp",
              "type": "uint256"
            },
            {
              "internalType": "address",
              "name": "receiver",
              "type": "address"
            }
          ],
          "internalType": "struct chai.fields[]",
          "name": "re",
          "type": "tuple[]"
        },
        {
          "components": [
            {
              "internalType": "string",
              "name": "name",
              "type": "string"
            },
            {
              "internalType": "string",
              "name": "messege",
              "type": "string"
            },
            {
              "internalType": "uint256",
              "name": "ammount",
              "type": "uint256"
            },
            {
              "internalType": "uint256",
              "name": "timestamp",
              "type": "uint256"
            },
            {
              "internalType": "address",
              "name": "receiver",
              "type": "address"
            }
          ],
          "internalType": "struct chai.fields[]",
          "name": "se",
          "type": "tuple[]"
        }
      ],
      "stateMutability": "view",
      "type": "function"
    },
    {
      "inputs": [
        {
          "internalType": "string",
          "name": "_name",
          "type": "string"
        }
      ],
      "name": "login",
      "outputs": [],
      "stateMutability": "nonpayable",
      "type": "function"
    },
    {
      "inputs": [
        {
          "internalType": "string",
          "name": "",
          "type": "string"
        }
      ],
      "name": "save",
      "outputs": [
        {
          "internalType": "address",
          "name": "",
          "type": "address"
        }
      ],
      "stateMutability": "view",
      "type": "function"
    },
    {
      "inputs": [
        {
          "internalType": "string",
          "name": "_name",
          "type": "string"
        },
        {
          "internalType": "string",
          "name": "_mes",
          "type": "string"
        }
      ],
      "name": "send",
      "outputs": [],
      "stateMutability": "payable",
      "type": "function"
    },
    {
      "inputs": [
        {
          "internalType": "address",
          "name": "",
          "type": "address"
        }
      ],
      "name": "yourName",
      "outputs": [
        {
          "internalType": "string",
          "name": "",
          "type": "string"
        }
      ],
      "stateMutability": "view",
      "type": "function"
    }
  ],
  "bytecode": "0x608060405234801561001057600080fd5b506119c6806100206000396000f3fe60806040526004361061004a5760003560e01c806338e48f061461004f5780633a7d280c1461008c5780634e417a98146100b557806374d5a2cf146100e1578063bd6de11c1461011e575b600080fd5b34801561005b57600080fd5b5061007660048036038101906100719190610fdb565b61013a565b6040516100839190611065565b60405180910390f35b34801561009857600080fd5b506100b360048036038101906100ae9190610fdb565b610183565b005b3480156100c157600080fd5b506100ca6103e2565b6040516100d8929190611266565b60405180910390f35b3480156100ed57600080fd5b50610108600480360381019061010391906112c9565b610839565b6040516101159190611340565b60405180910390f35b61013860048036038101906101339190611362565b6108d9565b005b6001818051602081018201805184825260208301602085012081835280955050505050506000915054906101000a900473ffffffffffffffffffffffffffffffffffffffff1681565b6040516020016101929061140b565b604051602081830303815290604052805190602001206000803373ffffffffffffffffffffffffffffffffffffffff1673ffffffffffffffffffffffffffffffffffffffff1681526020019081526020016000206040516020016101f69190611518565b604051602081830303815290604052805190602001201461024c576040517f08c379a00000000000000000000000000000000000000000000000000000000081526004016102439061157b565b60405180910390fd5b600073ffffffffffffffffffffffffffffffffffffffff1660018260405161027491906115cc565b908152602001604051809103902060009054906101000a900473ffffffffffffffffffffffffffffffffffffffff1673ffffffffffffffffffffffffffffffffffffffff16146102f9576040517f08c379a00000000000000000000000000000000000000000000000000000000081526004016102f09061162f565b60405180910390fd5b806000803373ffffffffffffffffffffffffffffffffffffffff1673ffffffffffffffffffffffffffffffffffffffff168152602001908152602001600020908161034491906117e6565b503360016000803373ffffffffffffffffffffffffffffffffffffffff1673ffffffffffffffffffffffffffffffffffffffff1681526020019081526020016000206040516103939190611518565b908152602001604051809103902060006101000a81548173ffffffffffffffffffffffffffffffffffffffff021916908373ffffffffffffffffffffffffffffffffffffffff16021790555050565b606080600260003373ffffffffffffffffffffffffffffffffffffffff1673ffffffffffffffffffffffffffffffffffffffff168152602001908152602001600020600360003373ffffffffffffffffffffffffffffffffffffffff1673ffffffffffffffffffffffffffffffffffffffff16815260200190815260200160002081805480602002602001604051908101604052809291908181526020016000905b8282101561064457838290600052602060002090600502016040518060a00160405290816000820180546104b79061144f565b80601f01602080910402602001604051908101604052809291908181526020018280546104e39061144f565b80156105305780601f1061050557610100808354040283529160200191610530565b820191906000526020600020905b81548152906001019060200180831161051357829003601f168201915b505050505081526020016001820180546105499061144f565b80601f01602080910402602001604051908101604052809291908181526020018280546105759061144f565b80156105c25780601f10610597576101008083540402835291602001916105c2565b820191906000526020600020905b8154815290600101906020018083116105a557829003601f168201915b5050505050815260200160028201548152602001600382015481526020016004820160009054906101000a900473ffffffffffffffffffffffffffffffffffffffff1673ffffffffffffffffffffffffffffffffffffffff1673ffffffffffffffffffffffffffffffffffffffff168152505081526020019060010190610484565b50505050915080805480602002602001604051908101604052809291908181526020016000905b8282101561082b57838290600052602060002090600502016040518060a001604052908160008201805461069e9061144f565b80601f01602080910402602001604051908101604052809291908181526020018280546106ca9061144f565b80156107175780601f106106ec57610100808354040283529160200191610717565b820191906000526020600020905b8154815290600101906020018083116106fa57829003601f168201915b505050505081526020016001820180546107309061144f565b80601f016020809104026020016040519081016040528092919081815260200182805461075c9061144f565b80156107a95780601f1061077e576101008083540402835291602001916107a9565b820191906000526020600020905b81548152906001019060200180831161078c57829003601f168201915b5050505050815260200160028201548152602001600382015481526020016004820160009054906101000a900473ffffffffffffffffffffffffffffffffffffffff1673ffffffffffffffffffffffffffffffffffffffff1673ffffffffffffffffffffffffffffffffffffffff16815250508152602001906001019061066b565b505050509050915091509091565b600060205280600052604060002060009150905080546108589061144f565b80601f01602080910402602001604051908101604052809291908181526020018280546108849061144f565b80156108d15780601f106108a6576101008083540402835291602001916108d1565b820191906000526020600020905b8154815290600101906020018083116108b457829003601f168201915b505050505081565b6040516020016108e89061140b565b604051602081830303815290604052805190602001206000803373ffffffffffffffffffffffffffffffffffffffff1673ffffffffffffffffffffffffffffffffffffffff16815260200190815260200160002060405160200161094c9190611518565b60405160208183030381529060405280519060200120036109a2576040517f08c379a000000000000000000000000000000000000000000000000000000000815260040161099990611904565b60405180910390fd5b600073ffffffffffffffffffffffffffffffffffffffff166001836040516109ca91906115cc565b908152602001604051809103902060009054906101000a900473ffffffffffffffffffffffffffffffffffffffff1673ffffffffffffffffffffffffffffffffffffffff1603610a4f576040517f08c379a0000000000000000000000000000000000000000000000000000000008152600401610a4690611970565b60405180910390fd5b600182604051610a5f91906115cc565b908152602001604051809103902060009054906101000a900473ffffffffffffffffffffffffffffffffffffffff1673ffffffffffffffffffffffffffffffffffffffff166108fc349081150290604051600060405180830381858888f19350505050158015610ad3573d6000803e3d6000fd5b5060006040518060a001604052806000803373ffffffffffffffffffffffffffffffffffffffff1673ffffffffffffffffffffffffffffffffffffffff1681526020019081526020016000208054610b2a9061144f565b80601f0160208091040260200160405190810160405280929190818152602001828054610b569061144f565b8015610ba35780601f10610b7857610100808354040283529160200191610ba3565b820191906000526020600020905b815481529060010190602001808311610b8657829003601f168201915b505050505081526020018381526020013481526020014281526020013373ffffffffffffffffffffffffffffffffffffffff16815250905060026000600185604051610bef91906115cc565b908152602001604051809103902060009054906101000a900473ffffffffffffffffffffffffffffffffffffffff1673ffffffffffffffffffffffffffffffffffffffff1673ffffffffffffffffffffffffffffffffffffffff1681526020019081526020016000208190806001815401808255809150506001900390600052602060002090600502016000909190919091506000820151816000019081610c9791906117e6565b506020820151816001019081610cad91906117e6565b50604082015181600201556060820151816003015560808201518160040160006101000a81548173ffffffffffffffffffffffffffffffffffffffff021916908373ffffffffffffffffffffffffffffffffffffffff1602179055505050828160000181905250600183604051610d2491906115cc565b908152602001604051809103902060009054906101000a900473ffffffffffffffffffffffffffffffffffffffff16816080019073ffffffffffffffffffffffffffffffffffffffff16908173ffffffffffffffffffffffffffffffffffffffff1681525050600360003373ffffffffffffffffffffffffffffffffffffffff1673ffffffffffffffffffffffffffffffffffffffff1681526020019081526020016000208190806001815401808255809150506001900390600052602060002090600502016000909190919091506000820151816000019081610e0891906117e6565b506020820151816001019081610e1e91906117e6565b50604082015181600201556060820151816003015560808201518160040160006101000a81548173ffffffffffffffffffffffffffffffffffffffff021916908373ffffffffffffffffffffffffffffffffffffffff1602179055505050505050565b6000604051905090565b600080fd5b600080fd5b600080fd5b600080fd5b6000601f19601f8301169050919050565b7f4e487b7100000000000000000000000000000000000000000000000000000000600052604160045260246000fd5b610ee882610e9f565b810181811067ffffffffffffffff82111715610f0757610f06610eb0565b5b80604052505050565b6000610f1a610e81565b9050610f268282610edf565b919050565b600067ffffffffffffffff821115610f4657610f45610eb0565b5b610f4f82610e9f565b9050602081019050919050565b82818337600083830152505050565b6000610f7e610f7984610f2b565b610f10565b905082815260208101848484011115610f9a57610f99610e9a565b5b610fa5848285610f5c565b509392505050565b600082601f830112610fc257610fc1610e95565b5b8135610fd2848260208601610f6b565b91505092915050565b600060208284031215610ff157610ff0610e8b565b5b600082013567ffffffffffffffff81111561100f5761100e610e90565b5b61101b84828501610fad565b91505092915050565b600073ffffffffffffffffffffffffffffffffffffffff82169050919050565b600061104f82611024565b9050919050565b61105f81611044565b82525050565b600060208201905061107a6000830184611056565b92915050565b600081519050919050565b600082825260208201905092915050565b6000819050602082019050919050565b600081519050919050565b600082825260208201905092915050565b60005b838110156110e65780820151818401526020810190506110cb565b60008484015250505050565b60006110fd826110ac565b61110781856110b7565b93506111178185602086016110c8565b61112081610e9f565b840191505092915050565b6000819050919050565b61113e8161112b565b82525050565b61114d81611044565b82525050565b600060a083016000830151848203600086015261117082826110f2565b9150506020830151848203602086015261118a82826110f2565b915050604083015161119f6040860182611135565b5060608301516111b26060860182611135565b5060808301516111c56080860182611144565b508091505092915050565b60006111dc8383611153565b905092915050565b6000602082019050919050565b60006111fc82611080565b611206818561108b565b9350836020820285016112188561109c565b8060005b85811015611254578484038952815161123585826111d0565b9450611240836111e4565b925060208a0199505060018101905061121c565b50829750879550505050505092915050565b6000604082019050818103600083015261128081856111f1565b9050818103602083015261129481846111f1565b90509392505050565b6112a681611044565b81146112b157600080fd5b50565b6000813590506112c38161129d565b92915050565b6000602082840312156112df576112de610e8b565b5b60006112ed848285016112b4565b91505092915050565b600082825260208201905092915050565b6000611312826110ac565b61131c81856112f6565b935061132c8185602086016110c8565b61133581610e9f565b840191505092915050565b6000602082019050818103600083015261135a8184611307565b905092915050565b6000806040838503121561137957611378610e8b565b5b600083013567ffffffffffffffff81111561139757611396610e90565b5b6113a385828601610fad565b925050602083013567ffffffffffffffff8111156113c4576113c3610e90565b5b6113d085828601610fad565b9150509250929050565b600081905092915050565b50565b60006113f56000836113da565b9150611400826113e5565b600082019050919050565b6000611416826113e8565b9150819050919050565b7f4e487b7100000000000000000000000000000000000000000000000000000000600052602260045260246000fd5b6000600282049050600182168061146757607f821691505b60208210810361147a57611479611420565b5b50919050565b60008190508160005260206000209050919050565b600081546114a28161144f565b6114ac81866113da565b945060018216600081146114c757600181146114dc5761150f565b60ff198316865281151582028601935061150f565b6114e585611480565b60005b83811015611507578154818901526001820191506020810190506114e8565b838801955050505b50505092915050565b60006115248284611495565b915081905092915050565b7f796f75206861766520616c7265616479207369676e6564207570000000000000600082015250565b6000611565601a836112f6565b91506115708261152f565b602082019050919050565b6000602082019050818103600083015261159481611558565b9050919050565b60006115a6826110ac565b6115b081856113da565b93506115c08185602086016110c8565b80840191505092915050565b60006115d8828461159b565b915081905092915050565b7f757365724e616d6520616c72656164792074616b656e00000000000000000000600082015250565b60006116196016836112f6565b9150611624826115e3565b602082019050919050565b600060208201905081810360008301526116488161160c565b9050919050565b60006020601f8301049050919050565b600082821b905092915050565b60006008830261169c7fffffffffffffffffffffffffffffffffffffffffffffffffffffffffffffffff8261165f565b6116a6868361165f565b95508019841693508086168417925050509392505050565b6000819050919050565b60006116e36116de6116d98461112b565b6116be565b61112b565b9050919050565b6000819050919050565b6116fd836116c8565b611711611709826116ea565b84845461166c565b825550505050565b600090565b611726611719565b6117318184846116f4565b505050565b5b818110156117555761174a60008261171e565b600181019050611737565b5050565b601f82111561179a5761176b81611480565b6117748461164f565b81016020851015611783578190505b61179761178f8561164f565b830182611736565b50505b505050565b600082821c905092915050565b60006117bd6000198460080261179f565b1980831691505092915050565b60006117d683836117ac565b9150826002028217905092915050565b6117ef826110ac565b67ffffffffffffffff81111561180857611807610eb0565b5b611812825461144f565b61181d828285611759565b600060209050601f831160018114611850576000841561183e578287015190505b61184885826117ca565b8655506118b0565b601f19841661185e86611480565b60005b8281101561188657848901518255600182019150602085019450602081019050611861565b868310156118a3578489015161189f601f8916826117ac565b8355505b6001600288020188555050505b505050505050565b7f6669727374206c6f67696e000000000000000000000000000000000000000000600082015250565b60006118ee600b836112f6565b91506118f9826118b8565b602082019050919050565b6000602082019050818103600083015261191d816118e1565b9050919050565b7f7265636569766572206e6f7420666f756e640000000000000000000000000000600082015250565b600061195a6012836112f6565b915061196582611924565b602082019050919050565b600060208201905081810360008301526119898161194d565b905091905056fea264697066735822122006ecc5f7af26e39babda4b6189027f6b248535566c51dc169d594ff29357e57764736f6c63430008120033",
  "linkReferences": {},
  "deployedLinkReferences": {}
}